:100000000C9462000C948A000C948A000C948A0070
:100010000C948A000C948A000C9430140C948A007E
:100020000C948A000C948A000C948A000C948A0028
:100030000C948A000C948A000C948A000C948A0018
:100040000C9464080C948A000C9432080C940C08EC
:100050000C948A000C948A000C948A000C948A00F8
:100060000C948A000C948A000000000023002600F3
:10007000290000000000240027002A0000000000E2
:10008000250028002B0004040404040404040202D4
:100090000202020203030303030301020408102007
:1000A0004080010204081020010204081020000012
:1000B0000008000201000003040700000000000027
:1000C0000000331411241FBECFEFD8E0DEBFCDBF38
:1000D00011E0A0E0B1E0E6E1FEE202C005900D9281
:1000E000A43AB107D9F723E0A4EAB1E001C01D9218
:1000F000A831B207E1F710E0C2E6D0E004C02197D2
:10010000FE010E94F316C136D107C9F70E94B2144E
:100110000C9409170C9400008CBD9DBD0895AF92FE
:10012000BF92CF92DF92EF92FF920F931F93CF93E4
:10013000DF936C017B018B01040F151FEB015E0146
:10014000AE18BF08C017D10759F06991D601ED91DB
:10015000FC910190F081E02DC6010995892B79F77A
:10016000C501DF91CF911F910F91FF90EF90DF902C
:10017000CF90BF90AF900895FC01538D448D252FF3
:1001800030E0842F90E0821B930B541710F0CF9631
:10019000089501970895FC01918D828D981761F063
:1001A000A28DAE0FBF2FB11D5D968C91928D9F5F7A
:1001B0009F73928F90E008958FEF9FEF0895FC0159
:1001C000918D828D981731F0828DE80FF11D858D0C
:1001D00090E008958FEF9FEF0895FC01918D228D9F
:1001E000892F90E0805C9F4F821B91098F73992724
:1001F00008958BE392E00E94ED0021E0892B09F441
:1002000020E0822F08950E94F90081110C940000D3
:10021000089580E090E0892B11F00C94030108957B
:10022000FC01A48DA80FB92FB11DA35ABF4F2C916B
:10023000848D90E001968F739927848FA689B78962
:100240002C93A089B1898C91837080648C93938D59
:10025000848D981306C00288F389E02D80818F7DFC
:1002600080830895EF92FF920F931F93CF93DF93B4
:10027000EC0181E0888F9B8D8C8D98131AC0E889E2
:10028000F989808185FF15C09FB7F894EE89FF89B1
:100290006083E889F98980818370806480839FBF4F
:1002A00081E090E0DF91CF911F910F91FF90EF904F
:1002B0000895F62E0B8D10E00F5F1F4F0F7311275F
:1002C000E02E8C8D8E110CC00FB607FCFACFE8899A
:1002D000F989808185FFF5CFCE010E941001F1CF11
:1002E000EB8DEC0FFD2FF11DE35AFF4FF0829FB70E
:1002F000F8940B8FEA89FB8980818062CFCFCF93FE
:10030000DF93EC01888D8823B9F0AA89BB89E8893D
:10031000F9898C9185FD03C0808186FD0DC00FB6E3
:1003200007FCF7CF8C9185FFF2CF808185FFEDCF61
:10033000CE010E941001E9CFDF91CF910895833063
:1003400081F028F4813099F08230A9F00895873047
:10035000A9F08830C9F08430B1F4809180008F7D9D
:1003600003C0809180008F7780938000089584B5CA
:100370008F7784BD089584B58F7DFBCF8091B000C9
:100380008F778093B00008958091B0008F7DF9CF72
:10039000CF93DF93282F30E0F901E255FF4F84918E
:1003A000F901E656FF4FD491F901EA57FF4FC49186
:1003B000CC2389F081110E949F01EC2FF0E0EE0F19
:1003C000FF1FE458FF4FA591B4918FB7F894EC91BB
:1003D000DE2BDC938FBFDF91CF910895CF93DF9316
:1003E00090E0FC01E656FF4F24918A579F4FFC0195
:1003F00084918823D1F090E0880F991FFC01EE587A
:10040000FF4FA591B491FC01E458FF4FC591D491E1
:1004100061110EC09FB7F8948C91E22FE0958E2366
:100420008C932881E223E8839FBFDF91CF910895C9
:100430008FB7F894EC91E22BEC938FBFF6CF3FB7D8
:10044000F8948091B6019091B701A091B801B09154
:10045000B90126B5A89B05C02F3F19F00196A11D33
:10046000B11D3FBFBA2FA92F982F8827BC01CD01FE
:10047000620F711D811D911D42E0660F771F881F5D
:10048000991F4A95D1F708958F929F92AF92BF928C
:10049000CF92DF92EF92FF924B015C010E941F020C
:1004A0006B017C010E941F026C197D098E099F0956
:1004B000683E734081059105A8F321E0821A9108F6
:1004C000A108B10888EEC80E83E0D81EE11CF11C1B
:1004D00081149104A104B10429F7FF90EF90DF90FB
:1004E000CF90BF90AF909F908F900895FC01208196
:1004F0002EBD9B012150310941F051810DB407FE01
:10050000FDCF4EB55EBD4193F5CF61507109860FA9
:10051000971F0DB407FEFDCF2EB5FC012083089573
:10052000E091D901F091DA0180819091D801892B75
:1005300080830895E091D901F091DA019081809152
:10054000D80180958923808308958EBD00000DB465
:1005500007FEFDCF8EB50895AF92BF92CF92DF9286
:10056000EF92FF920F931F93CF93DF93CDB7DEB738
:1005700028970FB6F894DEBF0FBECDBF8C017B016C
:100580006A018091DC018333E1F45801A40EB51EA9
:10059000A016B10609F46FC00E949A0280EF0E9473
:1005A000A502812F0E94A502802F0E94A5020F5F45
:1005B0001F4FF70181917F010E94A5020E949002C6
:1005C000E7CF5B01A40EB51E8433C1F40E949A02EA
:1005D00019830A838D2D80688B83CC8264E070E060
:1005E000CE0101960E947602AE14BF0409F441C008
:1005F000F70181917F010E94A502F6CF0E949A0225
:100600000F3F110509F028F419820A8384E08B83D7
:100610000CC017FD17C019820A8333E016950795A1
:100620003A95E1F7007E0C600B8386E0C816D10492
:10063000A0F5F701DE011496EA15FB0599F081910A
:100640008D93FACFC80126E0969587952A95E1F714
:10065000807E19830A830115104C10F48461D7CF72
:100660008C61D5CFB6016D5F7F4FCE0101960E94A0
:1006700076020E949002C60128960FB6F894DEBF5B
:100680000FBECDBFDF91CF911F910F91FF90EF90E3
:10069000DF90CF90BF90AF90089563E070E0CE01FF
:1006A00001960E947602F70181917F010E94A502C6
:1006B000AE14BF04C1F7DDCFCF93DF931F92CDB748
:1006C000DEB7898341E050E0BE016F5F7F4F90E06D
:1006D00080E00E94AC020F90DF91CF910895CF93FC
:1006E000DF931F92CDB7DEB72091DD0130E0322FCE
:1006F0002227260F371F90E0982F8827498341E053
:1007000050E0BE016F5F7F4F820F931F0E94AC02CB
:100710000F90DF91CF91089508951D9A0895259A1D
:100720002D9A0895AF92BF92CF92DF92EF92FF92EF
:100730000F931F93CF93DF9300D000D0CDB7DEB7D8
:100740008C016B017A018091DC018333E9F45B0158
:100750006801C40ED51EC016D106A9F10E949A02E6
:100760008FE00E94A502812F0E94A502802F0E9487
:10077000A5020F5F1F4F80E00E94A502F501819343
:100780005F010E949002E7CF843369F50E949A02CC
:1007900019830A838F2D8F778B83EC8264E070E05E
:1007A000CE0101960E947602A70170E060E0C601CA
:1007B0000E940217E114F10421F0B701C6010E9462
:1007C00076020E949002C7010F900F900F900F9039
:1007D000DF91CF911F910F91FF90EF90DF90CF901D
:1007E000BF90AF9008950E949A020F3F110509F043
:1007F00030F419820A831B8263E070E0D1CF17FDC9
:100800000BC019820A8333E0169507953A95E1F7F4
:10081000007E08600B83F0CFC80126E0969587958F
:100820002A95E1F7807E19830A830115104C18F48C
:1008300080618B83E1CF8861FCCFCF93DF931F92E0
:10084000CDB7DEB741E050E0BE016F5F7F4F90E073
:1008500080E00E94920389810F90DF91CF910895EB
:10086000CF93DF93C4E1D0E00E941D04882361F0A0
:1008700061E070E080E090E00E9444022197A1F7DF
:1008800080E0DF91CF91089581E0FBCFCF92DF929E
:10089000EF92FF920F931F93CF93DF93CDB7DEB705
:1008A000C454D1090FB6F894DEBF0FBECDBFFC0112
:1008B00082819381A481B58123968CAF9DAFAEAF29
:1008C000BFAF239721E023962FAF239723964CADFC
:1008D0005DAD6EAD7FAD23974BAB5CAB6DAB7EABCF
:1008E00089AF9AAFABAFBCAF8DA79EA7AFA7B8AB90
:1008F00028AB4DA55EA56FA578A94FA358A769A7FA
:100900007AA72EAB4BA95CA96DA97EA949A35AA3CE
:100910006BA37CA38B8F9C8FAD8FBE8F46E251E083
:100920005C8B4B8B3FEF3D8B3E8B3F8B188E5E87F6
:100930004D872AA7CFA0D8A4E9A4FAA4CF86D88A45
:10094000E98AFA8A2CA309A11AA12BA13CA1098743
:100950001A872B873C875A8349838B839C83AD837B
:10096000BE838091DE018111AEC060E372E080E061
:1009700090E00E944402DFB6F89400E910E034EA07
:10098000E32E30E0F32E8091DB01811124C0F801C9
:100990008491F7019491E82FF0E0EE0FFF1FEE58DD
:1009A000FF4FA591B4918C91982319F48AE00E948D
:1009B000C80161E08AE00E94EE018CB580618CBDC7
:1009C0008CB580648CBD61E08DE00E94EE0161E039
:1009D0008BE00E94EE018091DB018F5F8093DB0151
:1009E000DFBEF8010491E02FF0E0EE0FFF1FE458A6
:1009F000FF4F859194919093DA018093D901F7018B
:100A0000E490E092D80161E08AE00E94EE010E9449
:100A1000900280E591E00E948C0084E38093DC01E9
:100A200080E80E945C030E943004882309F481C09E
:100A300088E00E945C030E941D04883009F079C0A0
:100A400080E10E945C030E941D04803109F071C0A6
:100A500080E00E945C030E941D04182F811169C070
:100A600041E050E0BE016D5B7F4F8FE190E00E945E
:100A7000920324968FAD2497833009F05AC080E406
:100A80008093DD0142E06EE170E0812F0E946F03F0
:100A900042E06FE170E0812F0E946F031F5F14300E
:100AA00089F740E06EE170E0812F0E946F0340E023
:100AB0006FE170E0812F0E946F031F5F183089F78C
:100AC00081E08093DE0180E591E00E948C0046E0A9
:100AD00050E064E071E089E090E00E94AC0244E004
:100AE00050E0BE016D5F7F4F8FE090E00E94AC024E
:100AF00044E050E0BE01615F7F4F81E090E00E94E2
:100B0000AC0244E050E0BE016B5E7F4F85E090E0B8
:100B10000E94AC0281E08C8789859A85AB85BC8573
:100B20008093F8029093F902A093FA02B093FB022B
:100B30006FC087E38093DC0180E80E945C030E9421
:100B40003004882339F188E00E945C030E941D0470
:100B5000883001F580E10E945C030E941D04182F7B
:100B60008031C1F480E00E945C030E941D04811169
:100B700011C041E050E0BE016D5B7F4F89E390E022
:100B80000E94920324968FAD2497843019F4109319
:100B9000DD0196CF83E38093DC0180E80E945C0353
:100BA0000E943004882391F180E10E945C030E943E
:100BB0001D04803159F582E10E945C030E941D04EE
:100BC000823121F580E00E945C030E941D048111A6
:100BD0001DC084E08093DD0115E525961FAF2597A4
:100BE00041E050E0BE016C5B7F4F8BE190E00E94E2
:100BF000AC0224961FAF249741E050E0BE016D5B2C
:100C00007F4F8AE190E00E94AC025ACF1092DC0143
:100C1000CC5BDF4F0FB6F894DEBF0FBECDBFDF91C8
:100C2000CF911F910F91FF90EF90DF90CF9008959B
:100C3000FB0101900020E9F73197AF01461B570BEC
:100C4000DC01ED91FC910280F381E02D09948F92FB
:100C50009F92AF92BF92EF92FF920F931F93CF9309
:100C6000DF93CDB7DEB7A1970FB6F894DEBF0FBE06
:100C7000CDBF7C01FA01CB0119A2223008F42AE091
:100C80008E010F5D1F4F822E912CB12CA12CBF0124
:100C9000A50194010E94D116F901CA016A300CF530
:100CA000605DD8016E938D01232B242B252B79F7C2
:100CB00090E080E0109721F0BD01C7010E94180666
:100CC000A1960FB6F894DEBF0FBECDBFDF91CF91D6
:100CD0001F910F91FF90EF90BF90AF909F908F90DA
:100CE0000895695CDECF8F929F92AF92BF92CF92B0
:100CF000DF92EF92FF920F931F93CF93DF937C01CC
:100D0000EB016C0182E0C80ED11C4701E5E08E0EBC
:100D1000911C10E000E0F60141916F0150E070E09D
:100D200060E02AE0CE010E9427065C01E881F9819B
:100D30000190F081E02D6EE2CE0109958A0D9B1D98
:100D4000080F191FC814D90431F7F701458150E085
:100D500070E060E02AE0CE010E942706800F911F1C
:100D6000DF91CF911F910F91FF90EF90DF90CF9087
:100D7000BF90AF909F908F900895CF93DF93BC0169
:100D80008BE392E00E941806EC0168E271E08BE3CD
:100D900092E00E9418068C0F9D1FDF91CF9108955D
:100DA000F8940E948F032FEF81EE94E02150804051
:100DB0009040E1F700C000000E948D032FEF87EA0A
:100DC00091E6215080409040E1F700C000000E9471
:100DD0008D032FEF81EE94E0215080409040E1F7A9
:100DE00000C000000E948D032FEF81EE94E021509F
:100DF00080409040E1F700C000000E948D03D3CFF7
:100E0000CF93DF9300D0CDB7DEB71A82198260E0AE
:100E100082E00E94EE0100EB10E09CE9E92E90E0F8
:100E2000F92E28E8C22E20E0D22EF8018491F70195
:100E3000A490F601B490BB2019F181110E949F018A
:100E4000EB2DF0E0EE0FFF1FE859FF4FA591B49195
:100E50008C91A822A9F04DE750E0BE016F5F7F4F53
:100E60008091A8019091A9010E943B0F813021F04F
:100E70008BE291E00E94BD068FE190E00E94BE10DF
:100E800081E090E00E94BE10D0CFCF93DF9300D0DE
:100E9000CDB7DEB781E391E00E94BD0661E08DE051
:100EA0000E94EE014FEF5FEFBE016F5F7F4F8091B9
:100EB000A8019091A9010E94D510813099F78981EC
:100EC0009A81892B59F48AE391E00E94BD068DE056
:100ED0000E94C8018EE390E00E94BE1089819A8131
:100EE000019721F484E591E00E94BD0689819A81F1
:100EF0000297C1F684E791E00E94BD06D3CF0F931D
:100F00001F93CF93DF9300D000D000D0CDB7DEB7D2
:100F100086E291E09A83898380910001909101019A
:100F2000A0910201B09103018B839C83AD83BE83AA
:100F3000CE0101960E94460483E390E00E940213D2
:100F40008C01009759F04F96F801918380838AE0D5
:100F5000838F82E0848FC8010E94FC091093A9014D
:100F60000093A801E0914B02F0914C0282E0808353
:100F7000E0914702F09148021082E0914902F0911D
:100F80004A028FEC808310925302E0914F02F0915D
:100F9000500286E08083E0914D02F0914E02808104
:100FA00080618083E0914D02F0914E0280818860E3
:100FB0008083E0914D02F0914E02808180688083B1
:100FC000E0914D02F0914E0280818F7D808368EB2D
:100FD0007BE080E090E00E94440210E000E022E02C
:100FE00040E850E061E371E085E497E00E9421135E
:100FF00021E040E850E06FE871E080E097E00E9477
:10100000211326960FB6F894DEBF0FBECDBFDF9139
:10101000CF911F910F9108951F920F920FB60F92CB
:1010200011242F933F934F935F936F937F938F93ED
:101030009F93AF93BF93EF93FF938BE392E00E9454
:101040001001FF91EF91BF91AF919F918F917F918F
:101050006F915F914F913F912F910F900FBE0F9025
:101060001F9018951F920F920FB60F9211242F9375
:101070008F939F93EF93FF93E0914B02F0914C027B
:101080008081E0915102F091520282FD1BC090815B
:10109000809154028F5F8F7320915502821741F027
:1010A000E0915402F0E0E55CFD4F958F809354028F
:1010B000FF91EF919F918F912F910F900FBE0F9005
:1010C0001F9018958081F4CF1F920F920FB60F9248
:1010D00011242F933F938F939F93AF93BF9380914E
:1010E000B2019091B301A091B401B091B5013091DA
:1010F000B10123E0230F2D3758F50196A11DB11D35
:101100002093B1018093B2019093B301A093B401F5
:10111000B093B5018091B6019091B701A091B8014B
:10112000B091B9010196A11DB11D8093B6019093B4
:10113000B701A093B801B093B901BF91AF919F914E
:101140008F913F912F910F900FBE0F901F90189588
:1011500026E8230F0296A11DB11DD2CF8091110266
:10116000882331F08091AE01882321F080E008953A
:1011700081E0089582E00895E091E101F091E201BB
:101180008081811107C08FEF9FEF9093D3018093EF
:10119000D2010895E091E101F091E2010580F6812C
:1011A000E02D80819181F1CF0FB6F8940F9280915C
:1011B0001302909114020F900FBE08958091AE011A
:1011C0008F5F8093AE0108950FB6F8940F92FC01E3
:1011D000928D0F900FBE81E0911180E00895CF9322
:1011E000DF939C01FB01DC011196CD91DC91D3834F
:1011F000C2838C819D81958384838C819D81DC0158
:1012000013967C936E9312977D836C83318720872E
:10121000F90180818F5F8083DF91CF910895CF9313
:10122000DF93FC01A085B185828193812481358182
:10123000EC013D832C83C481D5819B838A831196E5
:101240008D919C9112978E179F0721F41296DC9333
:10125000CE931197118610868C9181508C938C912E
:10126000DF91CF9108950F931F93CF93DF938C015C
:10127000FB0180819181D80113968F3F9807F1F48B
:10128000E801AF81B88512968D919C911397938355
:101290008283EC01FD83EC83B583A4831396FC93D6
:1012A000EE93129711870087F80180818F5F80830A
:1012B000DF91CF911F910F910895D90112962D9131
:1012C0003C911397E9014881598184179507A8F744
:1012D000DACFFC01738362839187808746175707B3
:1012E00090F0421B530B8485958548175907C8F425
:1012F000BF016E5F7F4F8091BA019091BB010E9448
:10130000330980E008954217530718F462177307F2
:1013100040F4BF016E5F7F4F8091BC019091BD0191
:10132000EECF81E00895FF920F931F93CF93DF9349
:10133000EC01F62E00911302109114028091A40189
:101340009091A50102960E940F09CF3FDC0789F416
:10135000FF2079F06091A4017091A5016E5F7F4F2D
:1013600083EE91E0DF91CF911F910F91FF900C944C
:10137000EF08C00FD11FE091A401F091A501D38324
:10138000C2836091A4017091A501C017D10768F4D0
:101390008091DF019091E0016E5F7F4FDF91CF91EF
:1013A0001F910F91FF900C9433098091E10190916E
:1013B000E2016E5F7F4F0E9433098091D2019091CC
:1013C000D301C817D90720F4D093D301C093D20119
:1013D000DF91CF911F910F91FF900895FC0103962B
:1013E000928381832FEF3FEF34832383968385831A
:1013F0009087878310820895CF93DF93EC01892B28
:1014000011F40E94D0060FB6F8940F92888199814A
:101410002B8D4C8DBC01249F600D711D11247D838B
:101420006C831A8E9B838A832150330B429FB001B9
:10143000439F700D1124860F971F9F838E838FEF1C
:101440008D8F8E8FCE0108960E94EE09CE014196B7
:101450000E94EE090F900FBE81E0DF91CF910895B9
:10146000FC01DB010FB6F8940F92409113025091EA
:1014700014022D913C9111972F3F320711F1818178
:101480009281609115027081761749F048175907CB
:1014900030F01D921C9281E00F900FBE0895481B02
:1014A000590B42175307A8F7241B350B2D933C9378
:1014B000809115028083809113029091140292838F
:1014C000818380E0E9CF0F931F93CF93DF93DC01FB
:1014D0001596ED91FC91C681D781209711F40E9459
:1014E000D0068E01045F1F4FC8010E940F09809132
:1014F000AE01811125C00A501109C8010E940F09CF
:101500008E8990913A02981710F480933A02B9E0CC
:101510008B9FC0011124B8018A5E9D4F0E94EF0885
:10152000E091A401F091A5019E898689891760F454
:1015300081E08093AC01DF91CF911F910F910895CD
:10154000B80185EF91E0EACF80E0F5CFEF92FF920E
:101550000F931F93CF93DF93EC010FB6F8940F9284
:101560001E8D7C0181E1E80EF11C01E01116D4F022
:101570008FEF8E8F0F900FBE0FB6F8940F921D8DC8
:101580007E0188E0E80EF11C01E01116B4F08FEF47
:101590008D8F0F900FBEDF91CF911F910F91FF9014
:1015A000EF9008958989882319F3C7010E94630A7F
:1015B00081110093AC011150D9CF8885882339F36C
:1015C000C7010E94630A81110093AC011150DDCF65
:1015D000CF93DF93EB01009711F40E94D006609146
:1015E000A4017091A501645F7F4F0E94330961E0FF
:1015F000CE01DF91CF910C9493090F920FB6F8941E
:101600000F921F9211242F923F924F925F926F92EE
:101610007F928F929F92AF92BF92CF92DF92EF9282
:10162000FF920F931F932F933F934F935F936F936B
:101630007F938F939F93AF93BF93CF93DF93EF935A
:10164000FF93A091A401B091A5010DB60D920EB625
:101650000D9213BE8091AE01811127C180911302BA
:1016600090911402019690931402809313020097B4
:1016700009F063C0E091E101F091E20120812223B1
:1016800061F1F894259A2D9A2FEF61EE74E02150C4
:1016900060407040E1F700C000001D9A8FEF97EAAC
:1016A000A1E681509040A040E1F700C000001D9AE3
:1016B000BFEFC1EED4E0B150C040D040E1F700C070
:1016C00000001D9A2FEF61EE74E0215060407040E1
:1016D000E1F700C000001D9AD7CF2091E1013091C1
:1016E000E2014091DF015091E0015093E20140930B
:1016F000E1013093E0012093DF01209115022F5F7B
:1017000020931502E091E101F091E2012081211185
:1017100007C02FEF3FEF3093D3012093D2010DC0CC
:10172000E091E101F091E2010580F681E02D208158
:1017300031813093D3012093D2012091D201309195
:10174000D3018217930710F420E09BC020E019E03A
:10175000E091E101F091E2013081311107C08FEF9A
:101760009FEF9093D3018093D2018BC0E091E10170
:10177000F091E2010580F681E02D0680F781E02DF1
:10178000428153818417950728F45093D3014093E5
:10179000D20177C0AF014E5F5F4FA285B3856481F0
:1017A0007581E680F780EB01FD82EC82C681D781EE
:1017B0007B836A8311966D917C9112974617570728
:1017C00021F41296DC93CE931197138612863C91E6
:1017D00031503C933C91A489B5891097F9F0668506
:1017E0007785E088F188EB01FD82EC82C089D189A0
:1017F0007B836A831196ED90FC901297BF01645F22
:101800007F4FE616F70621F41296DC93CE931197DC
:10181000158A148A3C9131503C933C91A6893091B1
:101820003A023A1710F4A0933A021A9FD0011124F9
:10183000BD016A5E7D4F7B01DB011196CD91DC918C
:10184000D583C4836C817D81778366836C817D8140
:10185000DB0113965C934E9312975D834C83F38662
:10186000E286E70138813F5F3883A091A401B091FF
:10187000A501468956963C91431708F469CF21E0AB
:1018800067CFE091A401F091A501E689D9E0ED9F31
:10189000F0011124EA5EFD4F8081823008F021E0E2
:1018A0008091AC0181110EC00AC08091AA01909173
:1018B000AB0101969093AB018093AA0195C02223BE
:1018C00009F492C08091AE01882321F081E08093D9
:1018D000AC018AC01092AC01A091A401B091A50105
:1018E000E091A401F091A5012D913C918789908D03
:1018F00082179307A8F08091A4019091A50180918F
:10190000A4019091A501259A2D9A2FEF67EA71E61F
:10191000215060407040E1F700C000001D9AF5CFF3
:1019200080913A0290E069E02EC0019760F5F8944A
:10193000259A2D9ABFEFC1EED4E0B150C040D040FF
:10194000E1F700C000001D9A2FEF67EA71E6215011
:1019500060407040E1F700C000001D9A8FEF91EEEB
:10196000A4E081509040A040E1F700C000001D9A23
:10197000BFEFC1EED4E0B150C040D040E1F700C0AD
:1019800000001D9AD7CF482F689F9001699F300DA6
:101990001124F901EA5EFD4F5081552331F2A181F6
:1019A000B28112960D90BC91A02DB283A183275EC7
:1019B0003D4FA217B30729F412962D913C91328323
:1019C000218329E0289FF001299FF00D1124EA5E70
:1019D000FD4F0180F281E02D868197819093A501D2
:1019E0008093A40140933A02A091A401B091A50173
:1019F000CD91CDBFDD91DEBFFF91EF91DF91CF9112
:101A0000BF91AF919F918F917F916F915F914F9116
:101A10003F912F911F910F91FF90EF90DF90CF900A
:101A2000BF90AF909F908F907F906F905F904F90FE
:101A30003F902F901F900F900FBE0F9008950F9220
:101A40000FB6F8940F921F9211242F923F924F924B
:101A50005F926F927F928F929F92AF92BF92CF923E
:101A6000DF92EF92FF920F931F932F933F934F9329
:101A70005F936F937F938F939F93AF93BF93CF9316
:101A8000DF93EF93FF93A091A401B091A5010DB650
:101A90000D920EB60D928091AE01882321F081E067
:101AA0008093AC018AC01092AC01A091A401B091C6
:101AB000A501E091A401F091A5012D913C918789A8
:101AC000908D82179307A8F08091A4019091A501B1
:101AD0008091A4019091A501259A2D9A2FEF87EA74
:101AE00091E6215080409040E1F700C000001D9A2F
:101AF000F5CF80913A0290E069E02EC0019760F541
:101B0000F894259A2D9A8FEF91EE24E08150904021
:101B10002040E1F700C000001D9A8FEF97EA21E610
:101B2000815090402040E1F700C000001D9A8FEFE7
:101B300091EE24E0815090402040E1F700C0000089
:101B40001D9A8FEF91EE24E0815090402040E1F704
:101B500000C000001D9AD7CF482F689F9001699F51
:101B6000300D1124F901EA5EFD4F5081552331F209
:101B7000A181B28112960D90BC91A02DB283A18358
:101B8000275E3D4FA217B30729F412962D913C9181
:101B90003283218329E0289FF001299FF00D112431
:101BA000EA5EFD4F0180F281E02D8681978190935E
:101BB000A5018093A40140933A02A091A401B091A1
:101BC000A501CD91CDBFDD91DEBFFF91EF91DF91FA
:101BD000CF91BF91AF919F918F917F916F915F91C5
:101BE0004F913F912F911F910F91FF90EF90DF90B8
:101BF000CF90BF90AF909F908F907F906F905F90AD
:101C00004F903F902F901F900F900FBE0F90089510
:101C10007F928F929F92AF92BF92CF92DF92EF927C
:101C2000FF920F931F93CF93DF938091AE018111A9
:101C300002C00E94D0060FB6F8940F928091AE01B8
:101C400081508093AE018091AE01882389F080E0BD
:101C50000F900FBEDF91CF911F910F91FF90EF90EA
:101C6000DF90CF90BF90AF909F908F907F9008951E
:101C700080911202882359F3D0E0C0E029E0F22ECF
:101C8000EE24E39429C0E091FA01F091FB01C681B2
:101C9000D781CE010C960E940F098E010E5F1F4F57
:101CA000C8010E940F098E8990913A02981710F48A
:101CB00080933A028F9DC0011124B8018A5E9D4F26
:101CC0000E94EF08E091A401F091A5019E89868908
:101CD000981710F0E092AC018091F5018111D3CFFB
:101CE000CD2B11F00E94BC08E090AA01F090AB014E
:101CF000E114F10409F4B6C089E0A82E77247394A6
:101D0000CC24CA94DC2C8091AE01811199C0C09181
:101D10001302D09114022196D0931402C09313029F
:101D20002097F1F4E091E101F091E20180818111CD
:101D300080CF8091E1019091E2012091DF0130910B
:101D4000E0013093E2012093E1019093E001809360
:101D5000DF01809115028F5F809315020E94BC08FD
:101D60008091D2019091D301B12CC817D90708F006
:101D70005BC0E091A401F091A501E689AE9EF0015F
:101D80001124EA5EFD4F8081823010F0BB24B394B1
:101D90008091AC01811103C0BB2009F45AC070923C
:101DA000AC0157C0E091E101F091E2010580F681BC
:101DB000E02D06811781D80112968D919C91C8174C
:101DC000D90728F49093D3018093D201D2CF480150
:101DD000B2E08B0E911CC4010E940F09F8018489A6
:101DE0009589892B21F0C8010C960E940F09D80112
:101DF00056968C9190913A02981710F480933A027B
:101E00008A9DC0011124B4018A5E9D4F0E94EF0893
:101E1000E091A401F091A501D80156969C91868984
:101E2000981710F0BB24B394E091E101F091E20126
:101E300080818111B7CFD092D301C092D20199CFC6
:101E40008091AA019091AB0101969093AB01809390
:101E5000AA01B1E0EB1AF10809F055CF1092AB01DD
:101E60001092AA018091AC01882309F4F0CE0E945F
:101E70001F0D81E0EDCEAF92BF92DF92EF92FF9205
:101E80000F931F93CF93DF9300D000D01F92CDB755
:101E9000DEB78C017B015D834C83892B11F40E949A
:101EA000D0060E94AE08811104C08C819D81892BCF
:101EB000B1F780E0580128E0A20EB11CC0C0E48058
:101EC000F580E114F10419F580E0F801158214821F
:101ED000D394F801D28E9189992321F0C8014196BB
:101EE0000E94630A81110E941F0D0F900FBE81E0B6
:101EF0000F900F900F900F900F90DF91CF911F9147
:101F00000F91FF90EF90DF90BF90AF900895809178
:101F1000A4019091A501E816F90609F0C0CFF701D8
:101F200082A1882309F4BBCF815082A3268991A185
:101F3000291751F28111C8CF5701F2E0AF0EB11C41
:101F4000C5010E940F09F70181A1868B24E030E0D2
:101F5000281B31093587248790913A02981710F48D
:101F600080933A02F9E08F9FC0011124B5018A5E87
:101F70009D4F0E94EF0881E0A8CF50E0B701828119
:101F800093810E94F916F801848D22813381820F9A
:101F9000932F911D93838283248135818217930728
:101FA00008F45FC080819181938382835AC02C8121
:101FB0003D81232B21F40F900FBE80E099CF81113A
:101FC00009C08091150289838091130290911402B7
:101FD0009B838A830F900FBE0E94DE080FB6F89491
:101FE0000F92F801858D8F3F09F4158EF801868DCB
:101FF0008F3F09F4168E0F900FBEBE016C5F7F4FAE
:10200000CE0101960E94300A811133C00FB6F894B8
:102010000F92F801928D838D0F900FBE981323C0FD
:102020006C817D81C5010E94E80AC8010E94A60A50
:102030000E94080E811102C00E941F0D81E00FB6A0
:10204000F8940F92F801228D938D291708F0AFCFE5
:10205000D28C448D411191CF80819181892B09F4DB
:102060002ECF80E035CFC8010E94A60A0E94080E3C
:10207000E5CFC8010E94A60A0E94080E9ECF0F93CA
:102080001F93CF93DF9300D000D01F92CDB7DEB760
:10209000009711F40E94D0060091D6011091D7014B
:1020A00001151105C9F019827B836A839D838C8396
:1020B0000E94AE0850E040E0BE016F5F7F4FC80154
:1020C0000E943B0F0F900F900F900F900F90DF9199
:1020D000CF911F910F91089580E0F4CFEF92FF927E
:1020E0000F931F93CF93DF93E091BC01F091BD015B
:1020F0008081811113C08091BA019091BB019093AE
:10210000BD018093BC01F093BB01E093BA01DF9164
:10211000CF911F910F91FF90EF9008950580F68168
:10212000E02D00811181C681D7817E0182E0E80E19
:10213000F11CC7010E940F09E889F989CE010995B0
:102140008A8982FFD1CF8C859D85800F911F0817CA
:10215000190760F49B838A83D987C887B701809168
:10216000BC019091BD010E943309BECFB801CE01E0
:102170000E943F108111B8CF0E94D006CF93DF9309
:10218000EC018091AE0181110E94D0060E94DE0810
:1021900060E0CE010E9493090E94080E811102C0E6
:1021A0000E941F0DDF91CF910895AF92BF92CF9201
:1021B000DF92FF920F931F93CF93DF9300D000D055
:1021C0001F92CDB7DEB78C016B015D834C83892BE9
:1021D00011F40E94D0060E94AE08811104C08C81C7
:1021E0009D81892BB1F780E0580191E1A90EB11CC6
:1021F00044C02C813D81232B21F40F900FBE80E041
:102200006DC0811109C080911502898380911302EC
:10221000909114029B838A830F900FBE0E94DE0868
:102220000FB6F8940F92F801858D8F3F09F4158E43
:10223000F801868D8F3F09F4168E0F900FBEBE01F8
:102240006C5F7F4FCE0101960E94300A81115BC006
:10225000C8010E94E408882309F44FC06C817D8185
:10226000C5010E94E80AC8010E94A60A0E94080E41
:10227000811102C00E941F0D81E00FB6F8940F92E9
:10228000F801F28CFF2009F4B4CF448D4423B1F05F
:1022900050E086819781840F951F978386832481E0
:1022A00035818217930720F08081918197838683FF
:1022B000F80166817781C6010E94F916FA94F80147
:1022C000F28E8085882339F0C80108960E94630A3F
:1022D00081110E941F0D0F900FBE81E00F900F9093
:1022E0000F900F900F90DF91CF911F910F91FF9062
:1022F000DF90CF90BF90AF900895C8010E94A60ACA
:102300000E94080EB9CFC8010E94A60A0E94080EBA
:10231000C8010E94E408882309F4AECF70CFCF93A0
:10232000DF93009751F0EC010E94DE08CE010E947D
:102330004816DF91CF910C94080EDF91CF9108954C
:10234000CF93DF9300D000D01F92CDB7DEB7E091DE
:10235000BC01F091BD01F08010E000E0FF2029F009
:102360000580F681E02D008111810E94DE080E9427
:10237000D4086C018091AF019091B001C816D906C4
:1023800008F04BC00E946E10D092B001C092AF0115
:102390000E94080E50E040E0BE016F5F7F4F8091C9
:1023A000D6019091D7010E94D510882381F28981AE
:1023B00087FDF0CF0C811D81D8011A968D919C91DB
:1023C000892B21F0C80102960E940F090E94D408AF
:1023D0007C018091AF019091B001E816F90610F4EC
:1023E0000E946E10F092B001E092AF01E981EA30F4
:1023F00088F60E2E000CFF0BED5FFD4ED8015296B5
:102400008C910C94F3168B128B128B12CA12B11290
:10241000C4128B128B12CA12B112D092B001C092A8
:10242000AF01FF20B1F1C016D106D8F10E94080E0D
:10243000E091BC01F091BD010580F681E02DE680C0
:10244000F780C70102960E940F09D70152968C911E
:10245000529782FF14C01C966D917C91600F711F82
:102460009801A601C7010E946909882359F0B801A3
:10247000C7010E943F10811105C00E94D0068E7FC7
:10248000F701828BD7015096ED91FC91C701099518
:1024900081CFE091BA01F091BB018081BB24B3945C
:1024A0008111B12CE090D601F090D7010FB6F894CD
:1024B0000F92F701858D8F3F09F4158ED7015E9637
:1024C0008C915E978F3F11F45E961C920F900FBE19
:1024D000F701828D811115C0C701419671F260919B
:1024E000A4017091A501645F7F4F0E94EF08C801AD
:1024F0008C199D09BB2011F08FEF9FEF6B2D0E946F
:102500009309C7010E94A60A0E94080E811142CFBA
:102510000E941F0D3FCF8160F801828B2A813B8191
:1025200064857585620F731FA701C8010E94690940
:10253000882309F42FCFD8015096ED91FC91C80162
:102540000995F801828982FF25CF6A817B81848584
:102550009585680F791FC8010E943F1081111ACF1D
:102560008CCF8160F801828B6A817B81758764875B
:102570006115710509F481CF6E0D7F1D9701A701CB
:10258000C8010E94690906CF81FD04C0C8010E94EC
:102590008F1100CF8E7FD80152968C93FBCE00E036
:1025A00010E08091AD0181110CC080911602823043
:1025B00010F00E941F0D0115110599F30E940301EF
:1025C000F0CF0FB6F8940F92E091F101F091F20183
:1025D000C681D781CE0102960E940F098091120216
:1025E0008150809312028091AD0181508093AD01A2
:1025F0000F900FBE8F89988D0E948F11CE010E947F
:102600008F11CFCFCF93DF93EC010E94DE08CE0174
:102610000E94AC15EC010E94080E209771F40E94F4
:102620008F032FEF80E792E0215080409040E1F748
:1026300000C000000E948D03F4CFCE01DF91CF9146
:1026400008957F928F929F92AF92BF92CF92DF9226
:10265000EF92FF920F931F93CF93DF93982EA92EA3
:10266000762E872E7A01B22ECA010E9402136C01C7
:10267000892B09F4D4C088E290E00E940213EC0197
:10268000892B09F4C9C0D88ECF8AA70165EA70E00A
:10269000C6010E94021721E0E21AF108EF89F88DC5
:1026A000EE0DFF1D672D782DCE0149969B01285F09
:1026B0003F4FDB014D91BD01DC014D93CD01AB01DD
:1026C00041505109DA014C91442319F06217730704
:1026D00081F718A2BE8AB9A21AA21B861A861D8A81
:1026E0001C8AD987C88784E090E08B1991099D875F
:1026F0008C87DB8BCA8B84E09E012D5D3F4FD90117
:102700001D928A95E9F71FA29082DF011197AC9282
:1027100011971C92119780E88C9311971C925797F0
:102720001C9211971C92B397F983E8830115110548
:1027300019F0F801D183C0830FB6F8940F928091FD
:1027400012028F5F809312028091A4019091A501E3
:10275000892B09F073C0D093A501C093A401809187
:102760001202813081F586E192E00E94EE098FE14C
:1027700092E00E94EE0988E292E00E94EE0981E375
:1027800092E00E94EE0987E092E00E94EE098EEF4F
:1027900091E00E94EE0985EF91E00E94EE098CEE37
:1027A00091E00E94EE0983EE91E00E94EE0987E03D
:1027B00092E09093E2018093E1018EEF91E090939B
:1027C000E0018093DF01809110028F5F80931002FF
:1027D0008E8990913A02981710F480933A02F9E0AA
:1027E0008F9FC0011124BE016E5F7F4F8A5E9D4F97
:1027F0000E94EF080F900FBE80911102882351F0C4
:10280000E091A401F091A50196898E89981710F4A2
:102810000E941F0D81E004C0C6010E948F118FEF3E
:10282000DF91CF911F910F91FF90EF90DF90CF90AC
:10283000BF90AF909F908F907F90089580911102EC
:102840008111C1CFE091A401F091A5019E898689F3
:10285000981708F4B8CFD093A501C093A401B3CFC3
:102860000E94FD0A1895EBE3F2E01382128288EED3
:1028700093E0A0E0B0E084839583A683B78384E1EE
:1028800091E09183808385EC90E09587848784EC48
:1028900090E09787868780EC90E0918B808B81EC2D
:1028A00090E0938B828B82EC90E0958B848B86EC0E
:1028B00090E0978B868B118E128E138E148EE8ED1E
:1028C000F2E086E291E09183808312821382148287
:1028D0001582EEEDF2E091838083128213821482DE
:1028E0001582E4EEF2E091838083128213821482D7
:1028F0001582EAEEF2E091838083128213821482C1
:102900001582E0EFF2E091838083128213821482B9
:102910001582ECEFF2E0918380831282138214829D
:102920001582E6EFF2E09183808312821382148293
:102930001582E2E0F3E09183808312821382148295
:102940001582E8E0F3E0918380831282138214827F
:102950001582EEE0F3E09183808312821382148269
:1029600015820895789484B5826084BD84B58160B1
:1029700084BD85B5826085BD85B5816085BD80914A
:102980006E00816080936E001092810080918100C2
:1029900082608093810080918100816080938100BA
:1029A000809180008160809380008091B10084607C
:1029B0008093B1008091B00081608093B0008091DD
:1029C0007A00846080937A0080917A00826080939C
:1029D0007A0080917A00816080937A0080917A00F9
:1029E000806880937A001092C10020910E0130918E
:1029F0000F018FEF98E0821B930B90930B01809354
:102A00000A010E947F0704ED11E020E040EC50E055
:102A100066E971E08FEC92E10E942113813009F0A8
:102A200098C00FB6F8940F928091D6019091D7017B
:102A3000892B49F587EC91E00E94EE098EEB91E03D
:102A40000E94EE0987EC91E09093BD018093BC0158
:102A50008EEB91E09093BB018093BA0181E590E009
:102A60000E940213EC01009751F04F9699838883DE
:102A70008AE08B8F85E08C8FCE010E94FC09D09379
:102A8000D701C093D6010F900FBE8091D6019091CF
:102A9000D701892B69F000ED11E023E045E550E016
:102AA0006BE971E080EA91E10E942113811102C07B
:102AB0000E94D006813009F04CC0F8942FEF3FEF10
:102AC0003093D3012093D20180931102109214020B
:102AD00010921302A89588E190EC0FB6F894A8958F
:102AE000809360000FBE90936000A091A401B0910C
:102AF000A501CD91CDBFDD91DEBFFF91EF91DF91BB
:102B0000CF91BF91AF919F918F917F916F915F9185
:102B10004F913F912F911F910F91FF90EF90DF9078
:102B2000CF90BF90AF909F908F907F906F905F906D
:102B30004F903F902F901F900F900FBE0F900895D1
:102B40000E947F07C0E0D0E02097F1F30E940301CC
:102B5000FBCF8F3FA9F7ACCF0F931F93CF93DF939A
:102B60008230910510F482E090E0E0911603F0913C
:102B7000170330E020E0B0E0A0E0309799F4211591
:102B8000310509F44AC0281B390B24303105D8F52A
:102B90008A819B816115710589F1FB019383828391
:102BA000FE0111C0408151810281138148175907EC
:102BB000E0F04817590799F4109761F012960C93BA
:102BC000129713961C933296CF01DF91CF911F91EC
:102BD0000F9108950093160310931703F4CF211556
:102BE000310551F04217530738F0A901DB019A0172
:102BF000BD01DF01F801C1CFEF01F9CF90931703B9
:102C000080931603CDCFFE01E20FF31F81939193C2
:102C10002250310939832883D7CF20911403309172
:102C20001503232B41F420910C0130910D013093B9
:102C300015032093140320910A0130910B012115F3
:102C4000310541F42DB73EB740910E0150910F016F
:102C5000241B350BE0911403F0911503E217F307E1
:102C6000A0F42E1B3F0B2817390778F0AC014E5FFC
:102C70005F4F2417350748F04E0F5F1F5093150321
:102C800040931403819391939FCFF0E0E0E09CCFB9
:102C9000CF93DF930097E9F0FC0132971382128201
:102CA000A0911603B0911703ED0130E020E01097DA
:102CB000A1F420813181820F931F20911403309160
:102CC00015032817390709F061C0F0931503E09345
:102CD0001403DF91CF910895EA01CE17DF07E8F5DD
:102CE0004A815B819E0141155105B1F7E901FB83E2
:102CF000EA8349915991C40FD51FEC17FD0761F480
:102D0000808191810296840F951FE90199838883C0
:102D1000828193819B838A83F0E0E0E012968D911B
:102D20009C9113970097B9F52D913C911197CD0186
:102D30000296820F931F20911403309115032817D8
:102D4000390739F6309751F5109217031092160390
:102D5000B0931503A0931403BCCFD383C2834081E7
:102D60005181840F951FC817D90761F44E5F5F4FDB
:102D700088819981480F591F518340838A819B81A3
:102D8000938382832115310509F0B0CFF0931703A7
:102D9000E09316039ECFFD01DC01C0CF13821282A7
:102DA000D7CFA1E21A2EAA1BBB1BFD010DC0AA1F83
:102DB000BB1FEE1FFF1FA217B307E407F50720F0A4
:102DC000A21BB30BE40BF50B661F771F881F991F1F
:102DD0001A9469F760957095809590959B01AC0168
:102DE000BD01CF010895EE0FFF1F0590F491E02D76
:102DF0000994FB01DC0102C001900D92415050404A
:102E0000D8F70895DC0101C06D9341505040E0F7C0
:062E10000895F894FFCFC5
:102E1600C0A80222DEADBEEFFEED00001803800062
:102E26000000000032018F00BC007F01ED00CB00E6
:102E3600DF000000000073060D0A006572726F72F3
:102E4600004163747561646F72005365206170613F
:102E56006761206F207072656E646520656C204125
:102E66006972650053652063616D626961206C61FA
:102E76002076656C6F63696461642064656C2041CB
:102E8600697265005365207072656E6465206F20F7
:102E96006170616761206C6120426F6D6261006FD5
:102EA6006E5F6F66660049444C4500546D72205350
:042EB600766300003F
:00000001FF
