:020000040000FA
:100000000C9462000C948A000C948A000C948A0070
:100010000C948A000C948A000C943C110C948A0075
:100020000C948A000C948A000C948A000C948A0028
:100030000C948A000C948A000C948A000C948A0018
:100040000C9470050C948A000C943E050C941805D1
:100050000C948A000C948A000C948A000C948A00F8
:100060000C948A000C948A000000000024002700F1
:100070002A0000000000250028002B0000000000DE
:1000800023002600290004040404040404040202DA
:100090000202020203030303030301020408102007
:1000A0004080010204081020010204081020000012
:1000B0000008000201000003040700000000000027
:1000C0000000391211241FBECFEFD8E0DEBFCDBF34
:1000D00011E0A0E0B1E0E6E4F7E202C005900D9285
:1000E000A63DB107D9F723E0A6EDB1E001C01D920E
:1000F000A730B207E1F710E0C2E6D0E004C02197D4
:10010000FE010E948B13C136D107C9F70E943F112F
:100110000C94A1130C940000AF92BF92CF92DF9287
:10012000EF92FF920F931F93CF93DF936C017B01AC
:100130008B01040F151FEB015E01AE18BF08C0173D
:10014000D10759F06991D601ED91FC910190F081B0
:10015000E02DC6010995892B79F7C501DF91CF9173
:100160001F910F91FF90EF90DF90CF90BF90AF90D5
:100170000895FC01538D448D252F30E0842F90E0AD
:10018000821B930B541710F0CF9608950197089592
:10019000FC01918D828D981761F0A28DAE0FBF2F5B
:1001A000B11D5D968C91928D9F5F9F73928F90E0B1
:1001B00008958FEF9FEF0895FC01918D828D981720
:1001C00031F0828DE80FF11D858D90E008958FEF5D
:1001D0009FEF0895FC01918D228D892F90E0805C26
:1001E0009F4F821B91098F739927089586E692E0AD
:1001F0000E94EA0021E0892B09F420E0822F089573
:100200000E94F60081110C940000089580E090E0B7
:10021000892B11F00C9400010895FC01A48DA80F06
:10022000B92FB11DA35ABF4F2C91848D90E0019638
:100230008F739927848FA689B7892C93A089B18958
:100240008C91837080648C93938D848D981306C0F9
:100250000288F389E02D80818F7D80830895EF925D
:10026000FF920F931F93CF93DF93EC0181E0888F70
:100270009B8D8C8D98131AC0E889F989808185FF40
:1002800015C09FB7F894EE89FF896083E889F989E2
:1002900080818370806480839FBF81E090E0DF91E4
:1002A000CF911F910F91FF90EF900895F62E0B8D37
:1002B00010E00F5F1F4F0F731127E02E8C8D8E11F2
:1002C0000CC00FB607FCFACFE889F989808185FF59
:1002D000F5CFCE010E940D01F1CFEB8DEC0FFD2F7C
:1002E000F11DE35AFF4FF0829FB7F8940B8FEA8914
:1002F000FB8980818062CFCFCF93DF93EC01888D23
:100300008823B9F0AA89BB89E889F9898C9185FD90
:1003100003C0808186FD0DC00FB607FCF7CF8C911E
:1003200085FFF2CF808185FFEDCFCE010E940D01C8
:10033000E9CFDF91CF910895833081F028F48130A7
:1003400099F08230A9F008958730A9F08830C9F07B
:100350008430B1F4809180008F7D03C08091800053
:100360008F7780938000089584B58F7784BD08953A
:1003700084B58F7DFBCF8091B0008F778093B000E4
:1003800008958091B0008F7DF9CFCF93DF93282F10
:1003900030E0F901E255FF4F8491F901E656FF4F35
:1003A000D491F901EA57FF4FC491CC23A1F08111F8
:1003B0000E949C01EC2FF0E0EE0FFF1FE458FF4F6E
:1003C000A591B491EC91ED2381E090E009F480E0F7
:1003D000DF91CF91089580E090E0FACF1F93CF9303
:1003E000DF93282F30E0F901E255FF4F8491F901A6
:1003F000E656FF4FD491F901EA57FF4FC491CC2341
:10040000A9F0162F81110E949C01EC2FF0E0EE0F55
:10041000FF1FEE58FF4FA591B4918FB7F894EC9160
:10042000111108C0D095DE23DC938FBFDF91CF91EF
:100430001F910895DE2BF8CFCF93DF9390E0FC015E
:10044000E656FF4F24918A579F4FFC0184918823E1
:10045000D1F090E0880F991FFC01E859FF4FA5915A
:10046000B491FC01EE58FF4FC591D49161110EC0BB
:100470009FB7F8948C91E22FE0958E238C9328817E
:10048000E223E8839FBFDF91CF9108958FB7F8945F
:10049000EC91E22BEC938FBFF6CF3FB7F8948091AD
:1004A000E8019091E901A091EA01B091EB0126B534
:1004B000A89B05C02F3F19F00196A11DB11D3FBF9C
:1004C000BA2FA92F982F8827BC01CD01620F711D6B
:1004D000811D911D42E0660F771F881F991F4A9565
:1004E000D1F708951D9A0895259A2D9A0895CF93CE
:1004F000DF93FC0101900020E9F73197AF01481B21
:10050000590BBC0186E692E00E948C00EC0142E0AF
:1005100050E068E171E086E692E00E948C008C0F6A
:100520009D1FDF91CF910895F8940E9474022FEFE0
:1005300081EE94E0215080409040E1F700C000003F
:100540000E9472022FEF87EA91E62150804090408E
:10055000E1F700C000000E9472022FEF81EE94E0EC
:10056000215080409040E1F700C000000E947202DC
:100570002FEF81EE94E0215080409040E1F700C0E1
:1005800000000E947202D3CFCF93DF9300D0CDB78B
:10059000DEB78BE191E00E94770284E090E09A83DD
:1005A000898360E087E00E941C0287E00E94C50109
:1005B0000197A9F44DE750E0BE016F5F7F4F809136
:1005C000DA019091DB010E94470C813021F086E234
:1005D00091E00E9477028FE190E00E94CA0D81E0D5
:1005E00090E00E94CA0DE1CFCF93DF9300D0CDB74A
:1005F000DEB78CE291E00E94770283E090E09A837C
:10060000898360E00E941C0283E00E94C50101977B
:10061000A9F44DE750E0BE016F5F7F4F8091DA0192
:100620009091DB010E94470C813021F086E291E03D
:100630000E9477028FE190E00E94CA0D81E090E075
:100640000E94CA0DE1CFCF93DF9300D0CDB7DEB7C4
:1006500087E391E00E94770281E090E09A838983AA
:1006600060E084E00E941C0284E00E94C5010197C2
:10067000A9F44DE750E0BE016F5F7F4F8091DA0132
:100680009091DB010E94470C813021F086E291E0DD
:100690000E9477028FE190E00E94CA0D81E090E015
:1006A0000E94CA0DE1CFCF93DF9300D0CDB7DEB764
:1006B00081E391E00E94770282E090E09A8389834F
:1006C00060E086E00E941C0286E00E94C50101975E
:1006D000A9F44DE750E0BE016F5F7F4F8091DA01D2
:1006E0009091DB010E94470C813021F086E291E07D
:1006F0000E9477028FE190E00E94CA0D81E090E0B5
:100700000E94CA0DE1CFCF93DF9300D0CDB7DEB703
:1007100081E491E00E9477021A82198260E082E00F
:100720000E941C0282E00E94C5010197A9F44DE7D6
:1007300050E0BE016F5F7F4F8091DA019091DB0145
:100740000E94470C813021F086E291E00E947702FE
:100750008FE190E00E94CA0D81E090E00E94CA0DF6
:10076000E1CFCF93DF9300D0CDB7DEB788E491E03F
:100770000E94770261E08DE00E941C0261E08CE043
:100780000E941C0261E08BE00E941C024FEF5FEFB1
:10079000BE016F5F7F4F8091DA019091DB010E9473
:1007A000E10D813099F789819A81892B91F48DE04F
:1007B0000E94C501892B09F062C061E08DE00E94B2
:1007C000EE0181E591E00E9477028EE390E00E94C5
:1007D000CA0D89819A81019791F48CE00E94C5012C
:1007E000892B09F053C061E08CE00E94EE018CE699
:1007F00091E00E9477028EE390E00E94CA0D898109
:100800009A81029791F48BE00E94C501892B09F02F
:1008100044C061E08BE00E94EE0189E991E00E9412
:1008200077028EE390E00E94CA0D89819A81039736
:1008300081F461E08BE00E94EE0160E08CE00E94B8
:10084000EE018CE891E00E9477028EE390E00E9436
:10085000CA0D89819A81049709F098CF61E08BE0F5
:100860000E94EE0161E08CE00E94EE0188EA91E0D6
:100870000E9477028EE390E00E94CA0D87CF60E06D
:100880008DE00E94EE018FE591E09DCF60E08CE06D
:100890000E94EE0185E791E0ACCF60E08BE00E9422
:1008A000EE018EE791E0BBCF8F929F92AF92BF9205
:1008B000CF92DF92EF92FF920F931F93CF93DF932C
:1008C00083E390E00E940E10EC01009751F04F96E8
:1008D000998388838AE08B8F82E08C8FCE010E947F
:1008E0000807D093DB01C093DA01E0917602F09122
:1008F000770282E08083E0917202F09173021082AD
:10090000E0917402F09175028FEC808310927E0268
:10091000E0917A02F0917B0286E08083E091780298
:10092000F0917902808180618083E0917802F0917A
:100930007902808188608083E0917802F091790269
:10094000808180688083E0917802F09179028081D3
:100950008F7D808384EC91E00E9477020E944D029B
:100960004B015C018CEDC82E85E0D82EE12CF12CDA
:100970000E944D02681979098A099B09683E7340F3
:1009800081059105A8F321E0C21AD108E108F10818
:1009900088EE880E83E0981EA11CB11CC114D104FE
:1009A000E104F10429F710E000E021E040E450E028
:1009B00061E471E083E893E00E942D1021E040E4BF
:1009C00050E061E371E083E593E00E942D1021E0A7
:1009D00040E450E067E371E083E293E00E942D1071
:1009E00021E040E450E06CE271E084EF92E00E948C
:1009F0002D1021E041E450E06BE171E084EC92E0E5
:100A00000E942D1022E040E850E068E471E081EBA4
:100A100093E00E942D10DF91CF911F910F91FF90D5
:100A2000EF90DF90CF90BF90AF909F908F90089500
:100A30001F920F920FB60F9211242F933F934F9353
:100A40005F936F937F938F939F93AF93BF93EF9336
:100A5000FF9386E692E00E940D01FF91EF91BF9116
:100A6000AF919F918F917F916F915F914F913F9146
:100A70002F910F900FBE0F901F9018951F920F92FD
:100A80000FB60F9211242F938F939F93EF93FF93A1
:100A9000E0917602F09177028081E0917C02F09102
:100AA0007D0282FD1BC0908180917F028F5F8F73DA
:100AB00020918002821741F0E0917F02F0E0EA5934
:100AC000FD4F958F80937F02FF91EF919F918F91C2
:100AD0002F910F900FBE0F901F9018958081F4CF2B
:100AE0001F920F920FB60F9211242F933F938F9363
:100AF0009F93AF93BF938091E4019091E501A09102
:100B0000E601B091E7013091E30123E0230F2D3797
:100B100058F50196A11DB11D2093E3018093E401D6
:100B20009093E501A093E601B093E7018091E8017D
:100B30009091E901A091EA01B091EB010196A11D0C
:100B4000B11D8093E8019093E901A093EA01B0936D
:100B5000EB01BF91AF919F918F913F912F910F909A
:100B60000FBE0F901F90189526E8230F0296A11D27
:100B7000B11DD2CF80913C02882331F08091E001F9
:100B8000882321F080E0089581E0089582E00895AF
:100B9000E0910C02F0910D028081811107C08FEF6E
:100BA0009FEF90930502809304020895E0910C0258
:100BB000F0910D020580F681E02D80819181F1CFC9
:100BC0000FB6F8940F9280913E0290913F020F90E1
:100BD0000FBE08958091E0018F5F8093E00108953A
:100BE0000FB6F8940F92FC01928D0F900FBE81E02A
:100BF000911180E00895CF93DF939C01FB01DC010C
:100C00001196CD91DC91D383C2838C819D81958394
:100C100084838C819D81DC0113967C936E93129763
:100C20007D836C8331872087F90180818F5F80838A
:100C3000DF91CF910895CF93DF93FC01A085B1851B
:100C40008281938124813581EC013D832C83C48191
:100C5000D5819B838A8311968D919C9112978E17D3
:100C60009F0721F41296DC93CE931197118610867C
:100C70008C9181508C938C91DF91CF9108950F933B
:100C80001F93CF93DF938C01FB0180819181D80169
:100C900013968F3F9807F1F4E801AF81B88512965B
:100CA0008D919C91139793838283EC01FD83EC8358
:100CB000B583A4831396FC93EE9312971187008754
:100CC000F80180818F5F8083DF91CF911F910F9119
:100CD0000895D90112962D913C911397E90148810D
:100CE000598184179507A8F7DACFFC0173836283D3
:100CF000918780874617570790F0421B530B8485D6
:100D0000958548175907C8F4BF016E5F7F4F8091E2
:100D1000EC019091ED010E943F0680E0089542179A
:100D2000530718F46217730740F4BF016E5F7F4FDB
:100D30008091EE019091EF01EECF81E00895FF9256
:100D40000F931F93CF93DF93EC01F62E00913E0299
:100D500010913F028091D6019091D70102960E9496
:100D60001B06CF3FDC0789F4FF2079F06091D601A4
:100D70007091D7016E5F7F4F8EE092E0DF91CF914F
:100D80001F910F91FF900C94FB05C00FD11FE091B4
:100D9000D601F091D701D383C2836091D6017091BF
:100DA000D701C017D10768F480910A0290910B0215
:100DB0006E5F7F4FDF91CF911F910F91FF900C9449
:100DC0003F0680910C0290910D026E5F7F4F0E9452
:100DD0003F068091040290910502C817D90720F4BC
:100DE000D0930502C0930402DF91CF911F910F9120
:100DF000FF900895FC010396928381832FEF3FEFCC
:100E00003483238396838583908787831082089514
:100E1000CF93DF93EC01892B11F40E9494020FB65B
:100E2000F8940F92888199812B8D4C8DBC01249F61
:100E3000600D711D11247D836C831A8E9B838A83C0
:100E40002150330B429FB001439F700D1124860F38
:100E5000971F9F838E838FEF8D8F8E8FCE01089685
:100E60000E94FA06CE0141960E94FA060F900FBE2C
:100E700081E0DF91CF910895FC01DB010FB6F8947A
:100E80000F9240913E0250913F022D913C9111975B
:100E90002F3F320711F18181928160914002708170
:100EA000761749F04817590730F01D921C9281E0DF
:100EB0000F900FBE0895481B590B42175307A8F710
:100EC000241B350B2D933C938091400280838091AD
:100ED0003E0290913F029283818380E0E9CF0F939D
:100EE0001F93CF93DF93DC011596ED91FC91C681A2
:100EF000D781209711F40E9494028E01045F1F4F46
:100F0000C8010E941B068091E001811125C00A5092
:100F10001109C8010E941B068E89909165029817DD
:100F200010F480936502B9E08B9FC0011124B801D1
:100F30008F5B9D4F0E94FB05E091D601F091D70198
:100F40009E898689891760F481E08093DE01DF91B4
:100F5000CF911F910F910895B80180E292E0EACFFE
:100F600080E0F5CFEF92FF920F931F93CF93DF9323
:100F7000EC010FB6F8940F921E8D7C0181E1E80E12
:100F8000F11C01E01116D4F08FEF8E8F0F900FBE81
:100F90000FB6F8940F921D8D7E0188E0E80EF11CCB
:100FA00001E01116B4F08FEF8D8F0F900FBEDF911F
:100FB000CF911F910F91FF90EF9008958989882319
:100FC00019F3C7010E946F0781110093DE011150D0
:100FD000D9CF8885882339F3C7010E946F07811113
:100FE0000093DE011150DDCFCF93DF93EB0100972B
:100FF00011F40E9494026091D6017091D701645F50
:101000007F4F0E943F0661E0CE01DF91CF910C94AB
:101010009F060F920FB6F8940F921F9211242F92F1
:101020003F924F925F926F927F928F929F92AF9278
:10103000BF92CF92DF92EF92FF920F931F932F9365
:101040003F934F935F936F937F938F939F93AF9350
:10105000BF93CF93DF93EF93FF93A091D601B0910D
:10106000D7010DB60D920EB60D9213BE8091E00120
:10107000811127C180913E0290913F020196909389
:101080003F0280933E02009709F063C0E0910C029A
:10109000F0910D022081222361F1F894259A2D9A76
:1010A0002FEF61EE74E0215060407040E1F700C026
:1010B00000001D9A8FEF97EAA1E681509040A04072
:1010C000E1F700C000001D9ABFEFC1EED4E0B150BF
:1010D000C040D040E1F700C000001D9A2FEF61EE44
:1010E00074E0215060407040E1F700C000001D9A9C
:1010F000D7CF20910C0230910D0240910A025091FD
:101100000B0250930D0240930C0230930B0220937C
:101110000A02209140022F5F20934002E0910C02CE
:10112000F0910D022081211107C02FEF3FEF309386
:101130000502209304020DC0E0910C02F0910D0213
:101140000580F681E02D20813181309305022093C6
:10115000040220910402309105028217930710F4D3
:1011600020E09BC020E019E0E0910C02F0910D021C
:101170003081311107C08FEF9FEF9093050280936C
:1011800004028BC0E0910C02F0910D020580F68103
:10119000E02D0680F781E02D428153818417950769
:1011A00028F4509305024093040277C0AF014E5FCC
:1011B0005F4FA285B38564817581E680F780EB017E
:1011C000FD82EC82C681D7817B836A8311966D9103
:1011D0007C9112974617570721F41296DC93CE9311
:1011E0001197138612863C9131503C933C91A4890F
:1011F000B5891097F9F066857785E088F188EB016D
:10120000FD82EC82C089D1897B836A831196ED903F
:10121000FC901297BF01645F7F4FE616F70621F43A
:101220001296DC93CE931197158A148A3C91315013
:101230003C933C91A689309165023A1710F4A09333
:1012400065021A9FD0011124BD016F5B7D4F7B01A8
:10125000DB011196CD91DC91D583C4836C817D81B6
:10126000778366836C817D81DB0113965C934E935B
:1012700012975D834C83F386E286E70138813F5FF6
:101280003883A091D601B091D701468956963C91FA
:10129000431708F469CF21E067CFE091D601F091C0
:1012A000D701E689D9E0ED9FF0011124EF5BFD4FF6
:1012B0008081823008F021E08091DE0181110EC032
:1012C0000AC08091DC019091DD0101969093DD01CF
:1012D0008093DC0195C0222309F492C08091E00143
:1012E000882321F081E08093DE018AC01092DE0124
:1012F000A091D601B091D701E091D601F091D7012C
:101300002D913C918789908D82179307A8F0809149
:10131000D6019091D7018091D6019091D701259A5D
:101320002D9A2FEF67EA71E6215060407040E1F797
:1013300000C000001D9AF5CF8091650290E069E041
:101340002EC0019760F5F894259A2D9ABFEFC1EE53
:10135000D4E0B150C040D040E1F700C000001D9A79
:101360002FEF67EA71E6215060407040E1F700C05E
:1013700000001D9A8FEF91EEA4E081509040A040B4
:10138000E1F700C000001D9ABFEFC1EED4E0B150FC
:10139000C040D040E1F700C000001D9AD7CF482FD1
:1013A000689F9001699F300D1124F901EF5BFD4F9B
:1013B0005081552331F2A181B28112960D90BC91DA
:1013C000A02DB283A1832C5B3D4FA217B30729F454
:1013D00012962D913C913283218329E0289FF001C0
:1013E000299FF00D1124EF5BFD4F0180F281E02D6C
:1013F000868197819093D7018093D60140936502AF
:10140000A091D601B091D701CD91CDBFDD91DEBFC6
:10141000FF91EF91DF91CF91BF91AF919F918F910C
:101420007F916F915F914F913F912F911F910F91FC
:10143000FF90EF90DF90CF90BF90AF909F908F90F4
:101440007F906F905F904F903F902F901F900F90E4
:101450000FBE0F9008950F920FB6F8940F921F923F
:1014600011242F923F924F925F926F927F928F92B0
:101470009F92AF92BF92CF92DF92EF92FF920F9323
:101480001F932F933F934F935F936F937F938F930C
:101490009F93AF93BF93CF93DF93EF93FF93A0916D
:1014A000D601B091D7010DB60D920EB60D92809176
:1014B000E001882321F081E08093DE018AC0109250
:1014C000DE01A091D601B091D701E091D601F09153
:1014D000D7012D913C918789908D82179307A8F0B1
:1014E0008091D6019091D7018091D6019091D7013A
:1014F000259A2D9A2FEF87EA91E62150804090405F
:10150000E1F700C000001D9AF5CF8091650290E0E0
:1015100069E02EC0019760F5F894259A2D9A8FEF17
:1015200091EE24E0815090402040E1F700C000009F
:101530001D9A8FEF97EA21E6815090402040E1F715
:1015400000C000001D9A8FEF91EE24E08150904082
:101550002040E1F700C000001D9A8FEF91EE24E0DB
:10156000815090402040E1F700C000001D9AD7CF85
:10157000482F689F9001699F300D1124F901EF5B9E
:10158000FD4F5081552331F2A181B28112960D9009
:10159000BC91A02DB283A1832C5B3D4FA217B30752
:1015A00029F412962D913C913283218329E0289FC2
:1015B000F001299FF00D1124EF5BFD4F0180F281B6
:1015C000E02D868197819093D7018093D601409337
:1015D0006502A091D601B091D701CD91CDBFDD912B
:1015E000DEBFFF91EF91DF91CF91BF91AF919F91BE
:1015F0008F917F916F915F914F913F912F911F91AB
:101600000F91FF90EF90DF90CF90BF90AF909F90A1
:101610008F907F906F905F904F903F902F901F9092
:101620000F900FBE0F9008957F928F929F92AF926E
:10163000BF92CF92DF92EF92FF920F931F93CF93BF
:10164000DF938091E001811102C00E9494020FB6E5
:10165000F8940F928091E00181508093E001809195
:10166000E001882389F080E00F900FBEDF91CF91D9
:101670001F910F91FF90EF90DF90CF90BF90AF90B0
:101680009F908F907F90089580913D02882359F319
:10169000D0E0C0E029E0F22EEE24E39429C0E091EE
:1016A0002502F0912602C681D781CE010C960E94B8
:1016B0001B068E010E5F1F4FC8010E941B068E89FC
:1016C00090916502981710F4809365028F9DC00178
:1016D0001124B8018F5B9D4F0E94FB05E091D6015C
:1016E000F091D7019E898689981710F0E092DE016B
:1016F000809120028111D3CFCD2B11F00E94C8051B
:10170000E090DC01F090DD01E114F10409F4B6C0D1
:1017100089E0A82E77247394CC24CA94DC2C809181
:10172000E001811199C0C0913E02D0913F02219603
:10173000D0933F02C0933E022097F1F4E0910C0257
:10174000F0910D028081811180CF80910C029091E7
:101750000D0220910A0230910B0230930D0220936A
:101760000C0290930B0280930A02809140028F5FDB
:10177000809340020E94C805809104029091050266
:10178000B12CC817D90708F05BC0E091D601F091E1
:10179000D701E689AE9EF0011124EF5BFD4F8081F9
:1017A000823010F0BB24B3948091DE01811103C01C
:1017B000BB2009F45AC07092DE0157C0E0910C02C0
:1017C000F0910D020580F681E02D06811781D80188
:1017D00012968D919C91C817D90728F49093050211
:1017E00080930402D2CF4801B2E08B0E911CC40159
:1017F0000E941B06F80184899589892B21F0C80174
:101800000C960E941B06D80156968C919091650209
:10181000981710F4809365028A9DC0011124B401C9
:101820008F5B9D4F0E94FB05E091D601F091D7019F
:10183000D80156969C918689981710F0BB24B394D2
:10184000E0910C02F0910D0280818111B7CFD0920E
:101850000502C092040299CF8091DC019091DD01D4
:1018600001969093DD018093DC01B1E0EB1AF10861
:1018700009F055CF1092DD011092DC018091DE015C
:10188000882309F4F0CE0E942B0A81E0EDCEAF92BE
:10189000BF92DF92EF92FF920F931F93CF93DF934C
:1018A00000D000D01F92CDB7DEB78C017B015D83E5
:1018B0004C83892B11F40E9494020E94BA05811175
:1018C00004C08C819D81892BB1F780E0580128E00C
:1018D000A20EB11CC0C0E480F580E114F10419F53A
:1018E00080E0F80115821482D394F801D28E918998
:1018F000992321F0C80141960E946F0781110E942F
:101900002B0A0F900FBE81E00F900F900F900F9059
:101910000F90DF91CF911F910F91FF90EF90DF908B
:10192000BF90AF9008958091D6019091D701E816AD
:10193000F90609F0C0CFF70182A1882309F4BBCFD3
:10194000815082A3268991A1291751F28111C8CF14
:101950005701F2E0AF0EB11CC5010E941B06F70152
:1019600081A1868B24E030E0281B3109358724874C
:1019700090916502981710F480936502F9E08F9FAB
:10198000C0011124B5018F5B9D4F0E94FB0581E0D2
:10199000A8CF50E0B701828193810E949113F80192
:1019A000848D22813381820F932F911D93838283B3
:1019B000248135818217930708F45FC0808191816B
:1019C000938382835AC02C813D81232B21F40F9075
:1019D0000FBE80E099CF811109C0809140028983B8
:1019E00080913E0290913F029B838A830F900FBEAD
:1019F0000E94EA050FB6F8940F92F801858D8F3F8B
:101A000009F4158EF801868D8F3F09F4168E0F901C
:101A10000FBEBE016C5F7F4FCE0101960E943C0756
:101A2000811133C00FB6F8940F92F801928D838D17
:101A30000F900FBE981323C06C817D81C5010E9459
:101A4000F407C8010E94B2070E94140B811102C062
:101A50000E942B0A81E00FB6F8940F92F801228DB4
:101A6000938D291708F0AFCFD28C448D411191CFBF
:101A700080819181892B09F42ECF80E035CFC80178
:101A80000E94B2070E94140BE5CFC8010E94B20762
:101A90000E94140B9ECF0F931F93CF93DF9300D020
:101AA00000D01F92CDB7DEB7009711F40E949402C8
:101AB000009108021091090201151105C9F019825F
:101AC0007B836A839D838C830E94BA0550E040E04B
:101AD000BE016F5F7F4FC8010E94470C0F900F90AF
:101AE0000F900F900F90DF91CF911F910F9108955C
:101AF00080E0F4CFEF92FF920F931F93CF93DF9389
:101B0000E091EE01F091EF018081811113C080918D
:101B1000EC019091ED019093EF018093EE01F09331
:101B2000ED01E093EC01DF91CF911F910F91FF90B8
:101B3000EF9008950580F681E02D00811181C68126
:101B4000D7817E0182E0E80EF11CC7010E941B06CE
:101B5000E889F989CE0109958A8982FFD1CF8C85E0
:101B60009D85800F911F0817190760F49B838A8356
:101B7000D987C887B7018091EE019091EF010E944B
:101B80003F06BECFB801CE010E944B0D8111B8CFE8
:101B90000E949402CF93DF93EC018091E0018111C8
:101BA0000E9494020E94EA0560E0CE010E949F0616
:101BB0000E94140B811102C00E942B0ADF91CF9169
:101BC0000895AF92BF92CF92DF92FF920F931F932F
:101BD000CF93DF9300D000D01F92CDB7DEB78C013A
:101BE0006B015D834C83892B11F40E9494020E9447
:101BF000BA05811104C08C819D81892BB1F780E0E9
:101C0000580191E1A90EB11C44C02C813D81232BC8
:101C100021F40F900FBE80E06DC0811109C080914A
:101C20004002898380913E0290913F029B838A8388
:101C30000F900FBE0E94EA050FB6F8940F92F801BC
:101C4000858D8F3F09F4158EF801868D8F3F09F43D
:101C5000168E0F900FBEBE016C5F7F4FCE010196B6
:101C60000E943C0781115BC0C8010E94F0058823D7
:101C700009F44FC06C817D81C5010E94F407C80141
:101C80000E94B2070E94140B811102C00E942B0A0D
:101C900081E00FB6F8940F92F801F28CFF2009F45E
:101CA000B4CF448D4423B1F050E086819781840FF6
:101CB000951F97838683248135818217930720F0AF
:101CC0008081918197838683F80166817781C6013F
:101CD0000E949113FA94F801F28E8085882339F0DE
:101CE000C80108960E946F0781110E942B0A0F906D
:101CF0000FBE81E00F900F900F900F900F90DF912B
:101D0000CF911F910F91FF90DF90CF90BF90AF9038
:101D10000895C8010E94B2070E94140BB9CFC801F0
:101D20000E94B2070E94140BC8010E94F00588238C
:101D300009F4AECF70CFCF93DF93009751F0EC0151
:101D40000E94EA05CE010E940213DF91CF910C940C
:101D5000140BDF91CF910895CF93DF9300D000D083
:101D60001F92CDB7DEB7E091EE01F091EF01F08068
:101D700010E000E0FF2029F00580F681E02D0081D1
:101D800011810E94EA050E94E0056C018091E10149
:101D90009091E201C816D90608F04BC00E947A0D56
:101DA000D092E201C092E1010E94140B50E040E0A9
:101DB000BE016F5F7F4F80910802909109020E94DF
:101DC000E10D882381F2898187FDF0CF0C811D818F
:101DD000D8011A968D919C91892B21F0C801029609
:101DE0000E941B060E94E0057C018091E101909118
:101DF000E201E816F90610F40E947A0DF092E20171
:101E0000E092E101E981EA3088F60E2E000CFF0B2A
:101E1000E15FF04FD80152968C910C948B13970F81
:101E2000970F970FD60FBD0FD00F970F970FD60FA5
:101E3000BD0FD092E201C092E101FF20B1F1C016C6
:101E4000D106D8F10E94140BE091EE01F091EF0160
:101E50000580F681E02DE680F780C70102960E949A
:101E60001B06D70152968C91529782FF14C01C9684
:101E70006D917C91600F711F9801A601C7010E94AE
:101E80007506882359F0B801C7010E944B0D8111D6
:101E900005C00E9494028E7FF701828BD701509675
:101EA000ED91FC91C701099581CFE091EC01F09192
:101EB000ED018081BB24B3948111B12CE090080224
:101EC000F09009020FB6F8940F92F701858D8F3FBD
:101ED00009F4158ED7015E968C915E978F3F11F4B1
:101EE0005E961C920F900FBEF701828D811115C076
:101EF000C701419671F26091D6017091D701645F7C
:101F00007F4F0E94FB05C8018C199D09BB2011F071
:101F10008FEF9FEF6B2D0E949F06C7010E94B207B3
:101F20000E94140B811142CF0E942B0A3FCF816087
:101F3000F801828B2A813B8164857585620F731F4E
:101F4000A701C8010E947506882309F42FCFD80184
:101F50005096ED91FC91C8010995F801828982FFA4
:101F600025CF6A817B8184859585680F791FC8019B
:101F70000E944B0D81111ACF8CCF8160F801828BAA
:101F80006A817B81758764876115710509F481CF4A
:101F90006E0D7F1D9701A701C8010E94750606CF2F
:101FA00081FD04C0C8010E949B0E00CF8E7FD80126
:101FB00052968C93FBCE00E010E08091DF018111FE
:101FC0000CC080914102823010F00E942B0A011552
:101FD000110599F30E940001F0CF0FB6F8940F920B
:101FE000E0911C02F0911D02C681D781CE010296BC
:101FF0000E941B0680913D02815080933D0280919A
:10200000DF0181508093DF010F900FBE8F89988D83
:102010000E949B0ECE010E949B0ECFCFCF93DF93E9
:10202000EC010E94EA05CE010E946612EC010E94BA
:10203000140B209771F40E9474022FEF80E792E056
:10204000215080409040E1F700C000000E947202E1
:10205000F4CFCE01DF91CF9108957F928F929F921E
:10206000AF92BF92CF92DF92EF92FF920F931F93A6
:10207000CF93DF93982EA92E762E872E7A01B22E3B
:10208000CA010E940E106C01892B09F4D4C088E2A9
:1020900090E00E940E10EC01892B09F4C9C0D88E83
:1020A000CF8AA70165EA70E0C6010E949A1321E079
:1020B000E21AF108EF89F88DEE0DFF1D672D782DDE
:1020C000CE0149969B01285F3F4FDB014D91BD0139
:1020D000DC014D93CD01AB0141505109DA014C9126
:1020E000442319F06217730781F718A2BE8AB9A2B8
:1020F0001AA21B861A861D8A1C8AD987C88784E083
:1021000090E08B1991099D878C87DB8BCA8B84E0CB
:102110009E012D5D3F4FD9011D928A95E9F71FA2BF
:102120009082DF011197AC9211971C92119780E871
:102130008C9311971C9257971C9211971C92B397EE
:10214000F983E8830115110519F0F801D183C083E3
:102150000FB6F8940F9280913D028F5F80933D02FD
:102160008091D6019091D701892B09F073C0D0934B
:10217000D701C093D60180913D02813081F581E481
:1021800092E00E94FA068AE492E00E94FA0683E551
:1021900092E00E94FA068CE592E00E94FA0682E341
:1021A00092E00E94FA0689E292E00E94FA0680E23A
:1021B00092E00E94FA0687E192E00E94FA068EE021
:1021C00092E00E94FA0682E392E090930D028093DF
:1021D0000C0289E292E090930B0280930A028091B4
:1021E0003B028F5F80933B028E8990916502981726
:1021F00010F480936502F9E08F9FC0011124BE01A5
:102200006E5F7F4F8F5B9D4F0E94FB050F900FBE4F
:1022100080913C02882351F0E091D601F091D701E2
:1022200096898E89981710F40E942B0A81E004C0C9
:10223000C6010E949B0E8FEFDF91CF911F910F91EE
:10224000FF90EF90DF90CF90BF90AF909F908F90D6
:102250007F90089580913C028111C1CFE091D60119
:10226000F091D7019E898689981708F4B8CFD0934A
:10227000D701C093D601B3CF0E940908189578946E
:1022800084B5826084BD84B5816084BD85B582607B
:1022900085BD85B5816085BD80916E00816080932C
:1022A0006E00109281008091810082608093810095
:1022B00080918100816080938100809180008160A5
:1022C000809380008091B10084608093B100809100
:1022D000B00081608093B00080917A008460809328
:1022E0007A0080917A00826080937A0080917A00EF
:1022F000816080937A0080917A00806880937A0070
:102300001092C10020910401309105018FEF98E0F7
:10231000821B930B90930101809300010E9454044F
:1023200006E012E020E040EC50E069EC71E08BED5B
:102330009FE00E942D10813009F098C00FB6F894EC
:102340000F928091080290910902892B49F589EF3B
:1023500091E00E94FA0680EF91E00E94FA0689EF70
:1023600091E09093EF018093EE0180EF91E09093E4
:10237000ED018093EC0181E590E00E940E10EC01EC
:10238000009751F04F96998388838AE08B8F85E080
:102390008C8FCE010E940807D0930902C0930802D7
:1023A0000F900FBE8091080290910902892B69F06D
:1023B00002E012E023E045E550E06EEC71E08CEACB
:1023C0009EE00E942D10811102C00E949402813073
:1023D00009F04CC0F8942FEF3FEF309305022093A3
:1023E000040280933C0210923F0210923E02A89594
:1023F00088E190EC0FB6F894A895809360000FBE2A
:1024000090936000A091D601B091D701CD91CDBF3E
:10241000DD91DEBFFF91EF91DF91CF91BF91AF9141
:102420009F918F917F916F915F914F913F912F91EC
:102430001F910F91FF90EF90DF90CF90BF90AF90E2
:102440009F908F907F906F905F904F903F902F90D4
:102450001F900F900FBE0F9008950E945404C0E08B
:10246000D0E02097F1F30E940001FBCF8F3FA9F746
:10247000ACCFE6E6F2E01382128288EE93E0A0E0B1
:10248000B0E084839583A683B7838AE091E091834B
:10249000808385EC90E09587848784EC90E0978733
:1024A000868780EC90E0918B808B81EC90E0938B21
:1024B000828B82EC90E0958B848B86EC90E0978BFE
:1024C000868B118E128E138E148E08950F931F9388
:1024D000CF93DF938230910510F482E090E0E09199
:1024E0000503F091060330E020E0B0E0A0E0309773
:1024F00099F42115310509F44AC0281B390B243001
:102500003105D8F58A819B816115710589F1FB013F
:1025100093838283FE0111C0408151810281138126
:1025200048175907E0F04817590799F4109761F0D8
:1025300012960C93129713961C933296CF01DF914B
:10254000CF911F910F9108950093050310930603F7
:10255000F4CF2115310551F04217530738F0A90186
:10256000DB019A01BD01DF01F801C1CFEF01F9CF15
:102570009093060380930503CDCFFE01E20FF31F76
:10258000819391932250310939832883D7CF2091A9
:10259000030330910403232B41F420910201309175
:1025A0000301309304032093030320910001309131
:1025B00001012115310541F42DB73EB740910401C9
:1025C00050910501241B350BE0910303F0910403A6
:1025D000E217F307A0F42E1B3F0B2817390778F0FA
:1025E000AC014E5F5F4F2417350748F04E0F5F1F59
:1025F0005093040340930303819391939FCFF0E0A2
:10260000E0E09CCFCF93DF930097E9F0FC01329795
:1026100013821282A0910503B0910603ED0130E010
:1026200020E01097A1F420813181820F931F209127
:102630000303309104032817390709F061C0F093B0
:102640000403E0930303DF91CF910895EA01CE17CD
:10265000DF07E8F54A815B819E0141155105B1F71D
:10266000E901FB83EA8349915991C40FD51FEC1707
:10267000FD0761F4808191810296840F951FE90125
:1026800099838883828193819B838A83F0E0E0E051
:1026900012968D919C9113970097B9F52D913C91CD
:1026A0001197CD010296820F931F20910303309161
:1026B00004032817390739F6309751F510920603AD
:1026C00010920503B0930403A0930303BCCFD383FC
:1026D000C28340815181840F951FC817D90761F4C7
:1026E0004E5F5F4F88819981480F591F5183408306
:1026F0008A819B81938382832115310509F0B0CFB4
:10270000F0930603E09305039ECFFD01DC01C0CFEB
:1027100013821282D7CFEE0FFF1F0590F491E02DA8
:102720000994FB01DC0102C001900D924150504020
:10273000D8F70895DC0101C06D9341505040E0F797
:102740000895F894FFCF0000070380000000000008
:102750002F018C00B9007C01EA00C800DC000D0AE2
:1027600000616C74615F626F6D6261006572726FAF
:10277000720062616A615F626F6D626100616C74B8
:10278000615F62616A61006F6E5F6F6666004163E0
:10279000747561646F720041697265207072656E54
:1027A0006469646F004169726520417061676164AA
:1027B0006F0056656C2042616A610056656C20416D
:1027C0006C746100426F6D62612061706167616469
:1027D000610056656C2042616A6120636F6E204221
:1027E0006F6D6261207072656E6469646100566528
:1027F0006C20416C746120636F6E20426F6D62616A
:10280000207072656E6469646100496E6974004984
:0C281000444C4500546D72205376630068
:107E0000112484B714BE81FFF0D085E080938100F7
:107E100082E08093C00088E18093C10086E0809377
:107E2000C20080E18093C4008EE0C9D0259A86E02C
:107E300020E33CEF91E0309385002093840096BBD3
:107E4000B09BFECF1D9AA8958150A9F7CC24DD24C4
:107E500088248394B5E0AB2EA1E19A2EF3E0BF2EE7
:107E6000A2D0813461F49FD0082FAFD0023811F036
:107E7000013811F484E001C083E08DD089C08234E0
:107E800011F484E103C0853419F485E0A6D080C0E4
:107E9000853579F488D0E82EFF2485D0082F10E0AE
:107EA000102F00270E291F29000F111F8ED06801E7
:107EB0006FC0863521F484E090D080E0DECF843638
:107EC00009F040C070D06FD0082F6DD080E0C81688
:107ED00080E7D80618F4F601B7BEE895C0E0D1E017
:107EE00062D089930C17E1F7F0E0CF16F0E7DF06D8
:107EF00018F0F601B7BEE89568D007B600FCFDCFD4
:107F0000A601A0E0B1E02C9130E011968C91119780
:107F100090E0982F8827822B932B1296FA010C0160
:107F200087BEE89511244E5F5F4FF1E0A038BF0790
:107F300051F7F601A7BEE89507B600FCFDCF97BE46
:107F4000E89526C08437B1F42ED02DD0F82E2BD052
:107F50003CD0F601EF2C8F010F5F1F4F84911BD097
:107F6000EA94F801C1F70894C11CD11CFA94CF0C13
:107F7000D11C0EC0853739F428D08EE10CD085E9AC
:107F80000AD08FE07ACF813511F488E018D01DD067
:107F900080E101D065CF982F8091C00085FFFCCF94
:107FA0009093C60008958091C00087FFFCCF809118
:107FB000C00084FD01C0A8958091C6000895E0E648
:107FC000F0E098E1908380830895EDDF803219F02E
:107FD00088E0F5DFFFCF84E1DECF1F93182FE3DFCA
:107FE0001150E9F7F2DF1F91089580E0E8DFEE27F6
:047FF000FF270994CA
:027FFE00040479
:00000001FF
